:100000000C942A000C9447000C9447000C94470071
:100010000C9447000C9447000C9447000C94470044
:100020000C9447000C9447000C9447000C94470034
:100030000C9447000C9447000C9447000C94470024
:100040000C9447000C9447000C9447000C94470014
:100050000C94470011241FBECFE5D8E0DEBFCDBF12
:1000600010E0A0E6B0E0EAE6F2E002C005900D92F2
:10007000A036B107D9F710E0A0E6B0E001C01D92AC
:10008000A036B107E1F70E94C9000C9433010C942B
:1000900000001ABA08950E94BA0088E70E94A300DF
:1000A00088E70E948C0008950E94BA0080E00E94B8
:1000B000A30080E00E948C0008950E94BA0081E7AE
:1000C0000E94A30088E70E948C0008950E94BA0055
:1000D00088E70E94A30081E70E948C0008950E9497
:1000E000BF0084E60E94A30084E60E948C0008956D
:1000F0000E94C40084E60E94A30084E60E948C0053
:100100000895A09AA19AA29AA39AA89AA998AA989F
:10011000AB9ABB9A8F9A08958CBF83B7877F83BFB2
:1001200083B7806483BF83B78B7F83BF83B78260CD
:1001300083BF83B7816083BF83B78F7E83BF83B75D
:10014000806283BF089583BD85B5877F85BD85B5F2
:10015000806485BD85B5846085BD85B58D7F85BD91
:1001600085B58E7F85BD85B58F7E85BD85B5806261
:1001700085BD0895A89AA998AB9AAA980895A898B9
:10018000A99AAB9AAA980895A89AA998AB98AA9AFE
:1001900008950F931F93CF93DF930E9481000E94D5
:1001A0004900C0E0D0E007E010E089B381FF0AC059
:1001B00089B385FF07C0219689B381FF03C089B346
:1001C00085FDFACFC830D10519F40E946F000CC02C
:1001D000CA30D10549F40E94540080E090E0DF91DC
:1001E000CF911F910F91089589B382FF09C089B300
:1001F00083FD06C089B384FF03C00E944B0023C067
:1002000089B383FD06C089B382FD03C00E945D00EF
:100210001AC089B383FF06C089B382FD03C00E9460
:100220006F0011C089B383FD06C089B384FD03C08C
:100230000E94660008C089B383FF05C089B384FDAE
:1002400002C00E94780089B382FD08C089B383FD93
:1002500005C089B384FD02C00E944B0085B384FDB4
:0A026000E80185B3A2CFF894FFCFA8
:00000001FF
